{
  "_format": "hh-sol-artifact-1",
  "contractName": "AlchemyVitto",
  "sourceName": "contracts/AlchemyVitto.sol",
  "abi": [
    {
      "inputs": [],
      "stateMutability": "nonpayable",
      "type": "constructor"
    },
    {
      "anonymous": false,
      "inputs": [
        {
          "indexed": true,
          "internalType": "address",
          "name": "owner",
          "type": "address"
        },
        {
          "indexed": true,
          "internalType": "address",
          "name": "approved",
          "type": "address"
        },
        {
          "indexed": true,
          "internalType": "uint256",
          "name": "tokenId",
          "type": "uint256"
        }
      ],
      "name": "Approval",
      "type": "event"
    },
    {
      "anonymous": false,
      "inputs": [
        {
          "indexed": true,
          "internalType": "address",
          "name": "owner",
          "type": "address"
        },
        {
          "indexed": true,
          "internalType": "address",
          "name": "operator",
          "type": "address"
        },
        {
          "indexed": false,
          "internalType": "bool",
          "name": "approved",
          "type": "bool"
        }
      ],
      "name": "ApprovalForAll",
      "type": "event"
    },
    {
      "anonymous": false,
      "inputs": [
        {
          "indexed": true,
          "internalType": "address",
          "name": "from",
          "type": "address"
        },
        {
          "indexed": true,
          "internalType": "address",
          "name": "to",
          "type": "address"
        },
        {
          "indexed": true,
          "internalType": "uint256",
          "name": "tokenId",
          "type": "uint256"
        }
      ],
      "name": "Transfer",
      "type": "event"
    },
    {
      "inputs": [
        {
          "internalType": "address",
          "name": "to",
          "type": "address"
        },
        {
          "internalType": "uint256",
          "name": "tokenId",
          "type": "uint256"
        }
      ],
      "name": "approve",
      "outputs": [],
      "stateMutability": "nonpayable",
      "type": "function"
    },
    {
      "inputs": [
        {
          "internalType": "address",
          "name": "owner",
          "type": "address"
        }
      ],
      "name": "balanceOf",
      "outputs": [
        {
          "internalType": "uint256",
          "name": "",
          "type": "uint256"
        }
      ],
      "stateMutability": "view",
      "type": "function"
    },
    {
      "inputs": [
        {
          "internalType": "uint256",
          "name": "tokenId",
          "type": "uint256"
        }
      ],
      "name": "getApproved",
      "outputs": [
        {
          "internalType": "address",
          "name": "",
          "type": "address"
        }
      ],
      "stateMutability": "view",
      "type": "function"
    },
    {
      "inputs": [
        {
          "internalType": "address",
          "name": "owner",
          "type": "address"
        },
        {
          "internalType": "address",
          "name": "operator",
          "type": "address"
        }
      ],
      "name": "isApprovedForAll",
      "outputs": [
        {
          "internalType": "bool",
          "name": "",
          "type": "bool"
        }
      ],
      "stateMutability": "view",
      "type": "function"
    },
    {
      "inputs": [],
      "name": "name",
      "outputs": [
        {
          "internalType": "string",
          "name": "",
          "type": "string"
        }
      ],
      "stateMutability": "view",
      "type": "function"
    },
    {
      "inputs": [
        {
          "internalType": "uint256",
          "name": "tokenId",
          "type": "uint256"
        }
      ],
      "name": "ownerOf",
      "outputs": [
        {
          "internalType": "address",
          "name": "",
          "type": "address"
        }
      ],
      "stateMutability": "view",
      "type": "function"
    },
    {
      "inputs": [
        {
          "internalType": "address",
          "name": "_to",
          "type": "address"
        },
        {
          "internalType": "string",
          "name": "_tokenURI",
          "type": "string"
        }
      ],
      "name": "safeMint",
      "outputs": [],
      "stateMutability": "nonpayable",
      "type": "function"
    },
    {
      "inputs": [
        {
          "internalType": "address",
          "name": "from",
          "type": "address"
        },
        {
          "internalType": "address",
          "name": "to",
          "type": "address"
        },
        {
          "internalType": "uint256",
          "name": "tokenId",
          "type": "uint256"
        }
      ],
      "name": "safeTransferFrom",
      "outputs": [],
      "stateMutability": "nonpayable",
      "type": "function"
    },
    {
      "inputs": [
        {
          "internalType": "address",
          "name": "from",
          "type": "address"
        },
        {
          "internalType": "address",
          "name": "to",
          "type": "address"
        },
        {
          "internalType": "uint256",
          "name": "tokenId",
          "type": "uint256"
        },
        {
          "internalType": "bytes",
          "name": "_data",
          "type": "bytes"
        }
      ],
      "name": "safeTransferFrom",
      "outputs": [],
      "stateMutability": "nonpayable",
      "type": "function"
    },
    {
      "inputs": [
        {
          "internalType": "address",
          "name": "operator",
          "type": "address"
        },
        {
          "internalType": "bool",
          "name": "approved",
          "type": "bool"
        }
      ],
      "name": "setApprovalForAll",
      "outputs": [],
      "stateMutability": "nonpayable",
      "type": "function"
    },
    {
      "inputs": [
        {
          "internalType": "bytes4",
          "name": "_interfaceId",
          "type": "bytes4"
        }
      ],
      "name": "supportsInterface",
      "outputs": [
        {
          "internalType": "bool",
          "name": "",
          "type": "bool"
        }
      ],
      "stateMutability": "view",
      "type": "function"
    },
    {
      "inputs": [],
      "name": "symbol",
      "outputs": [
        {
          "internalType": "string",
          "name": "",
          "type": "string"
        }
      ],
      "stateMutability": "view",
      "type": "function"
    },
    {
      "inputs": [
        {
          "internalType": "uint256",
          "name": "index",
          "type": "uint256"
        }
      ],
      "name": "tokenByIndex",
      "outputs": [
        {
          "internalType": "uint256",
          "name": "",
          "type": "uint256"
        }
      ],
      "stateMutability": "view",
      "type": "function"
    },
    {
      "inputs": [
        {
          "internalType": "address",
          "name": "owner",
          "type": "address"
        },
        {
          "internalType": "uint256",
          "name": "index",
          "type": "uint256"
        }
      ],
      "name": "tokenOfOwnerByIndex",
      "outputs": [
        {
          "internalType": "uint256",
          "name": "",
          "type": "uint256"
        }
      ],
      "stateMutability": "view",
      "type": "function"
    },
    {
      "inputs": [
        {
          "internalType": "uint256",
          "name": "_tokenId",
          "type": "uint256"
        }
      ],
      "name": "tokenURI",
      "outputs": [
        {
          "internalType": "string",
          "name": "",
          "type": "string"
        }
      ],
      "stateMutability": "view",
      "type": "function"
    },
    {
      "inputs": [],
      "name": "totalSupply",
      "outputs": [
        {
          "internalType": "uint256",
          "name": "",
          "type": "uint256"
        }
      ],
      "stateMutability": "view",
      "type": "function"
    },
    {
      "inputs": [
        {
          "internalType": "address",
          "name": "from",
          "type": "address"
        },
        {
          "internalType": "address",
          "name": "to",
          "type": "address"
        },
        {
          "internalType": "uint256",
          "name": "tokenId",
          "type": "uint256"
        }
      ],
      "name": "transferFrom",
      "outputs": [],
      "stateMutability": "nonpayable",
      "type": "function"
    }
  ],
  "bytecode": "0x60806040526064600c553480156200001657600080fd5b50604080518082018252600c81526b416c6368656d79566974746f60a01b602080830191825283518085019094526006845265105310d2159560d21b908401528151919291620000699160009162000088565b5080516200007f90600190602084019062000088565b5050506200016b565b82805462000096906200012e565b90600052602060002090601f016020900481019282620000ba576000855562000105565b82601f10620000d557805160ff191683800117855562000105565b8280016001018555821562000105579182015b8281111562000105578251825591602001919060010190620000e8565b506200011392915062000117565b5090565b5b8082111562000113576000815560010162000118565b600181811c908216806200014357607f821691505b602082108114156200016557634e487b7160e01b600052602260045260246000fd5b50919050565b611bbb806200017b6000396000f3fe608060405234801561001057600080fd5b506004361061010b5760003560e01c80634f6ccce7116100a2578063a22cb46511610071578063a22cb46514610219578063b88d4fde1461022c578063c87b56dd1461023f578063d204c45e14610252578063e985e9c51461026557600080fd5b80634f6ccce7146101d85780636352211e146101eb57806370a08231146101fe57806395d89b411461021157600080fd5b806318160ddd116100de57806318160ddd1461018d57806323b872dd1461019f5780632f745c59146101b257806342842e0e146101c557600080fd5b806301ffc9a71461011057806306fdde0314610138578063081812fc1461014d578063095ea7b314610178575b600080fd5b61012361011e366004611884565b6102a1565b60405190151581526020015b60405180910390f35b6101406102b2565b60405161012f919061196f565b61016061015b3660046118be565b610344565b6040516001600160a01b03909116815260200161012f565b61018b61018636600461185a565b6103d1565b005b6008545b60405190815260200161012f565b61018b6101ad366004611704565b6104e7565b6101916101c036600461185a565b610518565b61018b6101d3366004611704565b6105ae565b6101916101e63660046118be565b6105c9565b6101606101f93660046118be565b61065c565b61019161020c3660046116b6565b6106d3565b61014061075a565b61018b6102273660046117bc565b610769565b61018b61023a366004611740565b610778565b61014061024d3660046118be565b6107b0565b61018b6102603660046117f8565b6107bb565b6101236102733660046116d1565b6001600160a01b03918216600090815260056020908152604080832093909416825291909152205460ff1690565b60006102ac8261083c565b92915050565b6060600080546102c190611a94565b80601f01602080910402602001604051908101604052809291908181526020018280546102ed90611a94565b801561033a5780601f1061030f5761010080835404028352916020019161033a565b820191906000526020600020905b81548152906001019060200180831161031d57829003601f168201915b5050505050905090565b600061034f82610861565b6103b55760405162461bcd60e51b815260206004820152602c60248201527f4552433732313a20617070726f76656420717565727920666f72206e6f6e657860448201526b34b9ba32b73a103a37b5b2b760a11b60648201526084015b60405180910390fd5b506000908152600460205260409020546001600160a01b031690565b60006103dc8261065c565b9050806001600160a01b0316836001600160a01b0316141561044a5760405162461bcd60e51b815260206004820152602160248201527f4552433732313a20617070726f76616c20746f2063757272656e74206f776e656044820152603960f91b60648201526084016103ac565b336001600160a01b038216148061046657506104668133610273565b6104d85760405162461bcd60e51b815260206004820152603860248201527f4552433732313a20617070726f76652063616c6c6572206973206e6f74206f7760448201527f6e6572206e6f7220617070726f76656420666f7220616c6c000000000000000060648201526084016103ac565b6104e2838361087e565b505050565b6104f133826108ec565b61050d5760405162461bcd60e51b81526004016103ac906119d4565b6104e28383836109d6565b6000610523836106d3565b82106105855760405162461bcd60e51b815260206004820152602b60248201527f455243373231456e756d657261626c653a206f776e657220696e646578206f7560448201526a74206f6620626f756e647360a81b60648201526084016103ac565b506001600160a01b03919091166000908152600660209081526040808320938352929052205490565b6104e283838360405180602001604052806000815250610778565b60006105d460085490565b82106106375760405162461bcd60e51b815260206004820152602c60248201527f455243373231456e756d657261626c653a20676c6f62616c20696e646578206f60448201526b7574206f6620626f756e647360a01b60648201526084016103ac565b6008828154811061064a5761064a611b40565b90600052602060002001549050919050565b6000818152600260205260408120546001600160a01b0316806102ac5760405162461bcd60e51b815260206004820152602960248201527f4552433732313a206f776e657220717565727920666f72206e6f6e657869737460448201526832b73a103a37b5b2b760b91b60648201526084016103ac565b60006001600160a01b03821661073e5760405162461bcd60e51b815260206004820152602a60248201527f4552433732313a2062616c616e636520717565727920666f7220746865207a65604482015269726f206164647265737360b01b60648201526084016103ac565b506001600160a01b031660009081526003602052604090205490565b6060600180546102c190611a94565b610774338383610b7d565b5050565b61078233836108ec565b61079e5760405162461bcd60e51b81526004016103ac906119d4565b6107aa84848484610c4c565b50505050565b60606102ac82610c7f565b6107c9600b80546001019055565b60006107d4600b5490565b9050600c548111156108285760405162461bcd60e51b815260206004820152601960248201527f416c6c204e4654732068617665206265656e206d696e7465640000000000000060448201526064016103ac565b6108328382610dee565b6104e28183610e08565b60006001600160e01b0319821663780e9d6360e01b14806102ac57506102ac82610e93565b6000908152600260205260409020546001600160a01b0316151590565b600081815260046020526040902080546001600160a01b0319166001600160a01b03841690811790915581906108b38261065c565b6001600160a01b03167f8c5be1e5ebec7d5bd14f71427d1e84f3dd0314c0f7b2291e5b200ac8c7c3b92560405160405180910390a45050565b60006108f782610861565b6109585760405162461bcd60e51b815260206004820152602c60248201527f4552433732313a206f70657261746f7220717565727920666f72206e6f6e657860448201526b34b9ba32b73a103a37b5b2b760a11b60648201526084016103ac565b60006109638361065c565b9050806001600160a01b0316846001600160a01b031614806109aa57506001600160a01b0380821660009081526005602090815260408083209388168352929052205460ff165b806109ce5750836001600160a01b03166109c384610344565b6001600160a01b0316145b949350505050565b826001600160a01b03166109e98261065c565b6001600160a01b031614610a4d5760405162461bcd60e51b815260206004820152602560248201527f4552433732313a207472616e736665722066726f6d20696e636f72726563742060448201526437bbb732b960d91b60648201526084016103ac565b6001600160a01b038216610aaf5760405162461bcd60e51b8152602060048201526024808201527f4552433732313a207472616e7366657220746f20746865207a65726f206164646044820152637265737360e01b60648201526084016103ac565b610aba838383610ee3565b610ac560008261087e565b6001600160a01b0383166000908152600360205260408120805460019290610aee908490611a51565b90915550506001600160a01b0382166000908152600360205260408120805460019290610b1c908490611a25565b909155505060008181526002602052604080822080546001600160a01b0319166001600160a01b0386811691821790925591518493918716917fddf252ad1be2c89b69c2b068fc378daa952ba7f163c4a11628f55a4df523b3ef91a4505050565b816001600160a01b0316836001600160a01b03161415610bdf5760405162461bcd60e51b815260206004820152601960248201527f4552433732313a20617070726f766520746f2063616c6c65720000000000000060448201526064016103ac565b6001600160a01b03838116600081815260056020908152604080832094871680845294825291829020805460ff191686151590811790915591519182527f17307eab39ab6107e8899845ad3d59bd9653f200f220920489ca2b5937696c31910160405180910390a3505050565b610c578484846109d6565b610c6384848484610eee565b6107aa5760405162461bcd60e51b81526004016103ac90611982565b6060610c8a82610861565b610cf05760405162461bcd60e51b815260206004820152603160248201527f45524337323155524953746f726167653a2055524920717565727920666f72206044820152703737b732bc34b9ba32b73a103a37b5b2b760791b60648201526084016103ac565b6000828152600a602052604081208054610d0990611a94565b80601f0160208091040260200160405190810160405280929190818152602001828054610d3590611a94565b8015610d825780601f10610d5757610100808354040283529160200191610d82565b820191906000526020600020905b815481529060010190602001808311610d6557829003601f168201915b505050505090506000610da060408051602081019091526000815290565b9050805160001415610db3575092915050565b815115610de5578082604051602001610dcd929190611903565b60405160208183030381529060405292505050919050565b6109ce84610ffb565b6107748282604051806020016040528060008152506110d3565b610e1182610861565b610e745760405162461bcd60e51b815260206004820152602e60248201527f45524337323155524953746f726167653a2055524920736574206f66206e6f6e60448201526d32bc34b9ba32b73a103a37b5b2b760911b60648201526084016103ac565b6000828152600a6020908152604090912082516104e29284019061158b565b60006001600160e01b031982166380ac58cd60e01b1480610ec457506001600160e01b03198216635b5e139f60e01b145b806102ac57506301ffc9a760e01b6001600160e01b03198316146102ac565b6104e2838383611106565b60006001600160a01b0384163b15610ff057604051630a85bd0160e11b81526001600160a01b0385169063150b7a0290610f32903390899088908890600401611932565b602060405180830381600087803b158015610f4c57600080fd5b505af1925050508015610f7c575060408051601f3d908101601f19168201909252610f79918101906118a1565b60015b610fd6573d808015610faa576040519150601f19603f3d011682016040523d82523d6000602084013e610faf565b606091505b508051610fce5760405162461bcd60e51b81526004016103ac90611982565b805181602001fd5b6001600160e01b031916630a85bd0160e11b1490506109ce565b506001949350505050565b606061100682610861565b61106a5760405162461bcd60e51b815260206004820152602f60248201527f4552433732314d657461646174613a2055524920717565727920666f72206e6f60448201526e3732bc34b9ba32b73a103a37b5b2b760891b60648201526084016103ac565b600061108160408051602081019091526000815290565b905060008151116110a157604051806020016040528060008152506110cc565b806110ab846111be565b6040516020016110bc929190611903565b6040516020818303038152906040525b9392505050565b6110dd83836112bc565b6110ea6000848484610eee565b6104e25760405162461bcd60e51b81526004016103ac90611982565b6001600160a01b0383166111615761115c81600880546000838152600960205260408120829055600182018355919091527ff3f7a9fe364faab93b216da50a3214154f22a0a2b415b23a84c8169e8b636ee30155565b611184565b816001600160a01b0316836001600160a01b0316146111845761118483826113fb565b6001600160a01b03821661119b576104e281611498565b826001600160a01b0316826001600160a01b0316146104e2576104e28282611547565b6060816111e25750506040805180820190915260018152600360fc1b602082015290565b8160005b811561120c57806111f681611acf565b91506112059050600a83611a3d565b91506111e6565b60008167ffffffffffffffff81111561122757611227611b56565b6040519080825280601f01601f191660200182016040528015611251576020820181803683370190505b5090505b84156109ce57611266600183611a51565b9150611273600a86611aea565b61127e906030611a25565b60f81b81838151811061129357611293611b40565b60200101906001600160f81b031916908160001a9053506112b5600a86611a3d565b9450611255565b6001600160a01b0382166113125760405162461bcd60e51b815260206004820181905260248201527f4552433732313a206d696e7420746f20746865207a65726f206164647265737360448201526064016103ac565b61131b81610861565b156113685760405162461bcd60e51b815260206004820152601c60248201527f4552433732313a20746f6b656e20616c7265616479206d696e7465640000000060448201526064016103ac565b61137460008383610ee3565b6001600160a01b038216600090815260036020526040812080546001929061139d908490611a25565b909155505060008181526002602052604080822080546001600160a01b0319166001600160a01b03861690811790915590518392907fddf252ad1be2c89b69c2b068fc378daa952ba7f163c4a11628f55a4df523b3ef908290a45050565b60006001611408846106d3565b6114129190611a51565b600083815260076020526040902054909150808214611465576001600160a01b03841660009081526006602090815260408083208584528252808320548484528184208190558352600790915290208190555b5060009182526007602090815260408084208490556001600160a01b039094168352600681528383209183525290812055565b6008546000906114aa90600190611a51565b600083815260096020526040812054600880549394509092849081106114d2576114d2611b40565b9060005260206000200154905080600883815481106114f3576114f3611b40565b600091825260208083209091019290925582815260099091526040808220849055858252812055600880548061152b5761152b611b2a565b6001900381819060005260206000200160009055905550505050565b6000611552836106d3565b6001600160a01b039093166000908152600660209081526040808320868452825280832085905593825260079052919091209190915550565b82805461159790611a94565b90600052602060002090601f0160209004810192826115b957600085556115ff565b82601f106115d257805160ff19168380011785556115ff565b828001600101855582156115ff579182015b828111156115ff5782518255916020019190600101906115e4565b5061160b92915061160f565b5090565b5b8082111561160b5760008155600101611610565b600067ffffffffffffffff8084111561163f5761163f611b56565b604051601f8501601f19908116603f0116810190828211818310171561166757611667611b56565b8160405280935085815286868601111561168057600080fd5b858560208301376000602087830101525050509392505050565b80356001600160a01b03811681146116b157600080fd5b919050565b6000602082840312156116c857600080fd5b6110cc8261169a565b600080604083850312156116e457600080fd5b6116ed8361169a565b91506116fb6020840161169a565b90509250929050565b60008060006060848603121561171957600080fd5b6117228461169a565b92506117306020850161169a565b9150604084013590509250925092565b6000806000806080858703121561175657600080fd5b61175f8561169a565b935061176d6020860161169a565b925060408501359150606085013567ffffffffffffffff81111561179057600080fd5b8501601f810187136117a157600080fd5b6117b087823560208401611624565b91505092959194509250565b600080604083850312156117cf57600080fd5b6117d88361169a565b9150602083013580151581146117ed57600080fd5b809150509250929050565b6000806040838503121561180b57600080fd5b6118148361169a565b9150602083013567ffffffffffffffff81111561183057600080fd5b8301601f8101851361184157600080fd5b61185085823560208401611624565b9150509250929050565b6000806040838503121561186d57600080fd5b6118768361169a565b946020939093013593505050565b60006020828403121561189657600080fd5b81356110cc81611b6c565b6000602082840312156118b357600080fd5b81516110cc81611b6c565b6000602082840312156118d057600080fd5b5035919050565b600081518084526118ef816020860160208601611a68565b601f01601f19169290920160200192915050565b60008351611915818460208801611a68565b835190830190611929818360208801611a68565b01949350505050565b6001600160a01b0385811682528416602082015260408101839052608060608201819052600090611965908301846118d7565b9695505050505050565b6020815260006110cc60208301846118d7565b60208082526032908201527f4552433732313a207472616e7366657220746f206e6f6e20455243373231526560408201527131b2b4bb32b91034b6b83632b6b2b73a32b960711b606082015260800190565b60208082526031908201527f4552433732313a207472616e736665722063616c6c6572206973206e6f74206f6040820152701ddb995c881b9bdc88185c1c1c9bdd9959607a1b606082015260800190565b60008219821115611a3857611a38611afe565b500190565b600082611a4c57611a4c611b14565b500490565b600082821015611a6357611a63611afe565b500390565b60005b83811015611a83578181015183820152602001611a6b565b838111156107aa5750506000910152565b600181811c90821680611aa857607f821691505b60208210811415611ac957634e487b7160e01b600052602260045260246000fd5b50919050565b6000600019821415611ae357611ae3611afe565b5060010190565b600082611af957611af9611b14565b500690565b634e487b7160e01b600052601160045260246000fd5b634e487b7160e01b600052601260045260246000fd5b634e487b7160e01b600052603160045260246000fd5b634e487b7160e01b600052603260045260246000fd5b634e487b7160e01b600052604160045260246000fd5b6001600160e01b031981168114611b8257600080fd5b5056fea264697066735822122015db5d9519b5937c36ebff817dcc12a72f29134a2a252f876c0e7ef7eaa4776864736f6c63430008070033",
  "linkReferences": {},
  "deployedLinkReferences": {}
}